:020000040000FA
:10000000A00B0020D5000000F5000000F700000064
:1000100000000000000000000000000000000000E0
:10002000000000000000000000000000F9000000D7
:100030000000000000000000FB000000FD000000C8
:10004000FF000000FF000000FF000000FF000000B4
:10005000FF000000FF000000FF000000FF000000A4
:10006000FF000000DD33000039340000FF00000015
:10007000BD340000E9340000FF000000FF00000074
:10008000FF000000FF000000FF00000089100000DA
:10009000FF000000FF000000FF000000FF00000064
:1000A000FF000000FF000000FF000000FF00000054
:1000B000FF000000FF000000FF000000FF00000044
:1000C0000348854600F064FC004800478D46000068
:1000D000A00B00200A480B4901600B4901600B4945
:1000E00001600B4A0B491160002101600A488047FA
:1000F0000A480047FEE7FEE7FEE7FEE7FEE7FEE709
:1001000000010050590000001600000088000000A7
:1001100024000050A55A0000C9320000C1000000B0
:1001200030B50B46014600202022012409E00D468F
:10013000D5409D4205D31D469540491B2546954017
:1001400040191546521E002DF1DC30BD03460B430D
:100150009B070AD102E008C9121F08C0042AFAD27C
:1001600003E00B780370491C401C521EF9D2704703
:10017000D2B201E00270401C491EFBD2704700223F
:10018000F6E710B504460846114602462046FFF73A
:10019000EFFF204610BD0000F0B51FB408465840E0
:1001A00088B0C00F1C460D4604905B0049000898BB
:1001B0005B084908801A1746994105D229460898D4
:1001C0002546089707460C46002361003846490833
:1001D000594058401A46084303D1089829460DB0A3
:1001E000F0BD2E0D70056100400D490D0790401ABD
:1001F000059040287ADA20030121000B0905084305
:1002000003900498002804D003997F429241511A28
:100210000391059840210A1A3846039900F05EFAC6
:100220000C4606903846059A039900F078FA089A29
:10023000801869410F460546F1173A0D3046504087
:1002400008434BD0049800282FD00598012814DCCF
:1002500000223605A81A3946B14101231B05801832
:1002600059411546F30FDB07079A01930292009557
:100270002346069A00F0C4FAB1E700223605A81A10
:100280003946B14101231B05801859410018264DFC
:1002900049417319801859410F46E10F0843069AE6
:1002A000054690186441069018E00698E10740085A
:1002B00008436408E9070C430022360506903946D6
:1002C000A81AB14101231B0580185941CA074008EB
:1002D000104349080022851871410F4623463946CC
:1002E0002846069A00F06FFA79E7FFE704980122A2
:1002F0004000C117161A00238B41049C089AE1178D
:100300001F46101B2B468B4119463B463246E9E7F8
:1003100030B40124E407634030BC3DE730B401242D
:10032000E407614030BC37E70000E0FFF0B51FB4E0
:100330008CB00F9A0D990D9851404000C90F40089C
:10034000C9070D90002450000A9440080B910F90AB
:100350000D990C9861406040084304D00F990E98A5
:100360006140084303D10020014611B0F0BD0D9853
:100370000D9901230903090B1B05194340000D9139
:10038000440D0F990F980903090B40001943400DC4
:1003900000220F912018194913464018144609905D
:1003A0000326032C00DA2646A51B0EAF08960AE0AA
:1003B00070000CA9085A6900795A48430021821834
:1003C0004B41761E6D1C08988542F1DD600004A942
:1003D0000A521804120C02431B0C641C082CDFDBAD
:1003E000099A0B990A98029201910090059B049A30
:1003F0000799069800F004FAB7E700000DFCFFFF2C
:10040000F0B51FB40C465C4086B0E40FE4070594D9
:100410004C000027640805465E00214676087940B6
:1004200078400497084323D0314608987940084320
:100430001ED06000410D7000400D01221205081A07
:10044000240333033549240B1B0B14431343401877
:10045000089A00902146A81A1E46994103D3009895
:10046000401C009002E06D1900986441002803DAF6
:10047000002001460BB0F0BD012000050297039754
:10048000019017E0089A2146A81AB1410AD3AD1A83
:100490002146B14102980C463843019A03990290D3
:1004A0001143039101987F08C10740080F436D195C
:1004B000019064410023019938465940584008434F
:1004C000E0D100272146284679407840084314D0DF
:1004D000089A2146284671405040084303D1012420
:1004E0003D46E40709E02146A81AB14102D20125A0
:1004F0003C4602E00125ED436C100099029A002071
:100500000905039B80185941049A059B801859419D
:1005100023462A4600F057F9ACE70000FD0300002F
:1005200010B500221146962300F013F910BD00000B
:100530000EB5C317C20F5840D30700218018054AD3
:100540000193029200910B460A4600F059F903B05C
:1005500000BD0000330400000EB50021044A0292E1
:1005600000910B4601910A4600F04AF903B000BD24
:100570003304000040004008C10D40020122400A3F
:10058000D20580187F2901DA00207047962903DC04
:100590009622511AC840704796398840704700002B
:1005A00070B5CD0F4A0009030123090B1B05194340
:1005B0000E4BED07520D00269A4201DA002070BD65
:1005C0000A4B34339A4203DC9A1A00F098F802E09E
:1005D000CD215118884004462946304671400843D1
:1005E00001D0604270BD204670BD0000FF030000D6
:1005F0004A0009030123090B1B051943094B10B5D8
:10060000520D9A4201DA002010BD064B34339A4253
:1006100003DC9A1A00F073F810BDCD215118884000
:1006200010BD0000FF030000C20FD20740004008C9
:1006300001D101467047C10D07234002DB01400A8A
:10064000CB18C10840071B0513431943704700002E
:10065000F0B50D460746C90FC9070020414040408C
:1006600016461C46084305D10123DB070022D71B91
:10067000AB411D46E10FC9070020414040400843FF
:1006800004D10121C907861BA1410C4638462946E1
:10069000324623468B4200D18242F0BD70B5CE0F68
:1006A000F6074D006D08002304462946594058407E
:1006B000084307D00722280D2903D201090B801A0D
:1006C000002801DC002070BDC900620F0A439219A6
:1006D000C005E100101800F034F870BD10B5202AF4
:1006E00004DB0023203A0146914006E00346934094
:1006F00091402024A21AD0400143184610BD10B5E5
:10070000202A04DB0846203AD040002110BDD0400A
:1007100020239C1A0B46A3401843D14010BD10B5AE
:10072000202A06DB0846203A1041C217C917114398
:1007300010BDD04020239C1A0B46A3401843114102
:1007400010BD002904DA401C490001D140084000D6
:10075000704770B40024050C05D11024000402D1A8
:10076000002922D01124050E01D108340002050F02
:1007700001D1241D0001850F01D1A41C8000002897
:1007800001DB641C4000002908D020252E1B0D46EB
:10079000F540A14000D001210D4328431B1B010659
:1007A000DB1D000A002B02DA002070BC7047DB055D
:1007B000181880180029F8DA401C4900F5D170BCDF
:1007C000400840007047F0B51FB4044602981F4629
:1007D0000E4600253946401BA9410DDA0122A41816
:1007E00031466941029A0E4639469018794169406E
:1007F000084301D1640864002046314605B0F0BDCD
:10080000F0B51FB4002782B005460C46002903D07E
:10081000204602F0EAFE03E0284602F0E6FE203021
:100820000646024621462846FFF758FF059A0D4620
:10083000049B0446114318437940084303D12046E2
:10084000294607B0F0BD0023059904985940584047
:10085000084318D04020821B05990498FFF74FFFEA
:1008600007460191324605990498FFF737FF0023A8
:1008700059405840084300D00120C117019A38431D
:10088000114304430D430E986905831BE00A084396
:100890000A3300276605E90A002B02DA0020014628
:1008A000CFE700221B05801859410C9A0D9B801838
:1008B000594133463A46FFF786FFC2E7FEB50C467C
:1008C000002549000646490869406840084304D0AD
:1008D00060001A4A410D914203DD3046214603B0C3
:1008E000F0BD16483538814211DC814206DB300DFF
:1008F0002103014330036940084302D1002001462F
:10090000EDE7E10F0E4A0020C9078918E7E7551AFD
:100910004020421B21463046FFF7E0FE074601918A
:100920002A4621463046FFF7EAFE3A46019BFFF78A
:100930004AFF2A46FFF7D2FED1E700003304000049
:100940000000F03FF0B50D460746C90FC90700206B
:100950004140404016461C46084305D10123DB07B1
:100960000022D71BAB411D46E10FC90700204140C3
:100970004040084304D10121C907861BA1410C4610
:100980003846294632462346994200D19042F0BD6E
:10099000064C0125064E05E02046E36807C82B43B8
:1009A00098471034B442F7D3FFF78EFB8055000010
:1009B000A055000070B58C180578401C6B075B0FC4
:1009C00001D10378401C2A1106D10278401C03E0B3
:1009D00006780E70401C491C5B1EF9D12B0706D40B
:1009E000002301E00B70491C521EFBD50AE003787E
:1009F000401CCB1A921C03E01D780D705B1C491C37
:100A0000521EF9D5A142D7D3002070BD10B50520E4
:100A100000F0ACFA10BD0000F0B585B0044600252A
:100A200000F0DEF8942000F0B5F8002000F0B2F8F5
:100A300000F0D6F8952000F0ADF8012000F0F8F8AD
:100A400000BF0EE000F06AF825494855802D03D11B
:100A5000012000F083F802E0002000F07FF8681C1D
:100A6000C5B2802DEEDD00F0CDF81D48C0781D49DF
:100A70000860084600680002086019488078096824
:100A800008431849086008460068000208601448D6
:100A90004078096808431349086008460068000266
:100AA00008600F480078096808430E490860084646
:100AB0000068FFF735FD0746FFF7B6FD039102908A
:100AC00009A00CC80298FFF731FC01910090FFF7D4
:100AD000E5FD06463046FFF74DFD206005B0F0BD50
:100AE0008406002034010020666666666666F63F6E
:100AF00010B500240120084948610861FFF786FF0E
:100B0000054840692043C4B2FFF780FF0020024936
:100B10000861204610BD00008042005070B50024DE
:100B200001200D494861002511E06006040E0120F6
:100B300009490861FFF76AFF074840692043C4B2CA
:100B4000002005490861FFF761FF681CC5B2082D48
:100B5000EBDB204670BD00008042005010B504461B
:100B6000E007C00F03D001200949486102E00020DE
:100B700007494861012006490861FFF747FF002047
:100B80000349086101204861FFF740FF10BD0000E4
:100B90008042005070B50446002519E080200442D0
:100BA00003D001200D49486102E000200B49486153
:100BB000FFF72CFF012009490861FFF727FF0020FC
:100BC00006490861FFF722FF6006040E681CC5B2E3
:100BD000082DE3DBFFF78CFF70BD00008042005062
:100BE00010B50120064948610861FFF70FFF00209A
:100BF00003494861FFF70AFF00200149086110BD61
:100C00008042005010B50020084948610120086169
:100C1000FFF7FCFE012005494861FFF7F7FE0020C1
:100C200002490861FFF7F2FE10BD0000804200504B
:100C300070B50546002405E07D20C00000F096F95F
:100C4000601C84B2AC42F7DB70BD000008B5002028
:100C500000900B4800680B490968401AFF21F531E4
:100C600088420CD306480068064908606846FFF7CA
:100C7000D3FE0098000C044948840098888408BD7D
:100C800014010020400100201402002070470000E1
:100C9000064AC10F89005258C306DB0E0121994054
:100CA0000A43024BC10F89005A5070470802005096
:100CB000FEB50020029019A0006800901848046A50
:100CC0000013044201D00020FEBD0120C0040442F4
:100CD00001D0144D00E0144D01204004044201D025
:100CE0002846F1E7032080032040800B69460A5C18
:100CF0000192E005C00D861C1F2040022040400AE2
:100D0000871C019A7A431146AA0872431046FFF7DE
:100D100007FA800002900298D6E700000102020460
:100D20000002005000805101001BB700FEB50020FA
:100D3000029019A0006800901848046A0013044249
:100D400001D00020FEBD0120C004044201D0144D9A
:100D500000E0144D01204004044201D02846F1E790
:100D6000032080032040800B69460A5C0192E00565
:100D7000C00D861C1F2040022040400A871C019A9B
:100D80007A431146AA0872431046FFF7C9F980005A
:100D900002900298D6E7000001020204000200500F
:100DA00000805101001BB700F0B50023002400258E
:100DB000C600360F0FD0124E4700BF0FBF00F41908
:100DC0002368C600360FC701FF0EBE401F46B7435B
:100DD0000F433B4623608603360E10D0084E08367C
:100DE0000703BF0FBF00F5192B688603360EF643C5
:100DF0008705FF0EBE401E40164333462B60F0BDF4
:100E000010020050064904E00A46491E002A00DC90
:100E100004E0044AD26802408242F5D100BF704724
:100E200090D003000002005010B50021084603F0E6
:100E3000EFFD0446082C01D0002010BD0120FCE786
:100E40001A49097800292FD019494978184A927807
:100E50008918174AD2788918154A12798918144ABC
:100E600052798918124A92798918114AD2798918C7
:100E70000F4A1278511A491CC8B20D49097A8142A9
:100E80000DD10B4989780902094AD2788918094A93
:100E9000918311468A8B098A5118064A9183002151
:100EA000054A1160014A1170704700000C010020D2
:100EB00084050020140200200801002000B589B03C
:100EC00006A80EA10EC90EC003A80FA10EC90EC020
:100ED000684610A10EC90EC008224B21C90100208E
:100EE000034603F0D3FE502003F014FF092203A9A8
:100EF0000B4802F061FB09B000BD0000FF01790062
:100F00000000000086000000FF019907D0000000EB
:100F10008F000000FF018807D0000000A000000043
:100F2000000015400EB568460AA10EC90EC00C4857
:100F300000680C490968401AE121C900884208D3B9
:100F4000074800680749086009226946064802F018
:100F500033FB0EBDFF018600000000007900000099
:100F600014010020180100200000154008490968FC
:100F70004143084A5161002191610521116100BF7F
:100F800004490969012212041142F9D07047000096
:100F90000001002000E000E072B6704762B67047C2
:100FA000034800684008400001490860704700009D
:100FB00000C0005000BF22210C4AD1601146486099
:100FC00001211161BFF36F8F00BF00BF074909699D
:100FD0000029FBD1054909684022114203D0402174
:100FE000024A116000E000BF7047000000C00050DE
:100FF0000348006801210843014908607047000068
:1010000000C00050014600BF0020084AD0601046D2
:10101000416001201061BFF36F8F00BF00BF034824
:1010200000690028FBD101488068704700C000506B
:1010300000BF2122084BDA601A46506091600122FD
:101040001A61BFF36F8F00BF00BF034A1269002A05
:10105000FBD100BF7047000000C0005070B50023F6
:101060000EE001249C400C4209D004685E00032578
:10107000B540AC435E001546B5402C4304605B1C94
:10108000082BEED370BD704710B50B48C46840699B
:10109000C007C00F01214840484003D0064800F077
:1010A0000FF807E005480068002803D020460349F0
:1010B0000968884710BD0000000012403001002080
:1010C00041690122114341617047000010B50122BE
:1010D00080210648FFF7C2FF0322302103488030F9
:1010E000FFF7BCFF01200249C86110BD80400050DD
:1010F0004042005070B5FFF77BFF1D494869FFF77C
:1011000081FF04461A494969081DFFF77BFF054620
:10111000FFF746FF681C0AD1164908850846008D6E
:10112000154908701348008D491C087005E01149E5
:101130000D8511490D70491C0D70601C0FD1FE20EA
:101140000C49C8840846C08C0B49891E08700948A0
:10115000C08C491C08700748C08CC0B270BD0549DE
:10116000CC840549891E0C70491C0C70E0B2F5E76F
:1011700000C00050140200204A010020C206D20E16
:1011800001219140014A11607047000000E100E038
:10119000C206D20E01219140014A11607047000041
:1011A00000E100E010B5002819DA1A4A03071B0F06
:1011B000083B9B089B00D2588307DC0EFF23A3400B
:1011C0009A438B071B0E8407E40EA3401A43114B6E
:1011D0000407240F083CA408A4001A5118E00E4A82
:1011E00003231B02D21883089B00D3588207D40E16
:1011F000FF22A24093438A07120E8407E40EA24006
:101200001343054A0324240212198408A40013512D
:1012100010BD00001CED00E000E100E010B500286A
:1012200019DA1A4A03071B0F083B9B089B00D25888
:101230008307DC0EFF23A3409A438B071B0E840712
:10124000E40EA3401A43114B0407240F083CA408E2
:10125000A4001A5118E00E4A03231B02D218830877
:101260009B00D3588207D40EFF22A24093438A07E3
:10127000120E8407E40EA2401343054A03242402FD
:1012800012198408A400135110BD00001CED00E0E9
:1012900000E100E010B5002819DA1A4A03071B0F15
:1012A000083B9B089B00D2588307DC0EFF23A3401A
:1012B0009A438B071B0E8407E40EA3401A43114B7D
:1012C0000407240F083CA408A4001A5118E00E4A91
:1012D00003231B02D21883089B00D3588207D40E25
:1012E000FF22A24093438A07120E8407E40EA24015
:1012F0001343054A0324240212198408A40013513D
:1013000010BD00001CED00E000E100E00278FF2AC3
:1013100019D14278BB2A02D0FF2A13D105E000225E
:10132000094B1A60094B1A600CE0094AD28C094B30
:101330001A7000225A709A70DA701A710522064BE0
:101340001A7000BF00BF7047240100201401002064
:1013500014020020440600202801002030B50C466D
:101360000021002203781D4DED8CAB4234D143782F
:10137000032B1DD0102B2ED18178C3781A02FF23A6
:101380001B021A4003799B189AB24B00134DEA5284
:101390002B46DB8C124D2B7010236B702B469970F3
:1013A0000023EB7001232B7105230E4D2B7012E0EF
:1013B00081784B00094DEA5A2B46DB8C084D2B7087
:1013C00003236B702B4699701312EB702A7105235F
:1013D000044D2B7000BF00BF30BD00001402002080
:1013E000440600202801002000B50021262003F03B
:1013F0000FFB024908700846007800BD2A01002052
:101400000748084908600848486008488860084854
:10141000C8600848086108484861084670470000ED
:10142000291D000008070020952A0000852B0000D8
:10143000011D00005D2B0000052A000000B502F030
:1014400007F90021862003F0E3FA0121872003F049
:10145000DFFA6421892003F0DBFA05218A2003F0FA
:10146000D7FAEA218B2003F0D3FAEA218C2003F08B
:10147000CFFAEA218D2003F0CBFA01F08DFC072191
:10148000ED2003F0C5FA0021F92003F0C1FA002194
:10149000FA2003F0BDFA00BD70B51748006820308F
:1014A000C0794007400F411C134800682030007C81
:1014B00080263040C209104800682030007C062693
:1014C000304201D0012000E0002083B20A480068C9
:1014D0002030857C084800682030007C1026304091
:1014E000102801D1022000E0002084B28818C01822
:1014F0004019001980B270BD8C01002070B50546FE
:101500000C46064800882080002004490880228874
:1015100003492846FEF71AFE70BD00007201002044
:101520009007002070B58EB00124FF48037802F0C8
:1015300073F80C070892FEFDFCFBFAF9F8F7F6F5D4
:1015400021E3FA4800682030007C10210840102870
:1015500005D14C21F54800684030017004E00C21B1
:10156000F248006840300170E121F04800684030E6
:1015700041700222ED4801684031402001F01AFB21
:10158000052000F071FBFF210131E948FEF7F7FD6E
:10159000E8494868FEF7E0FF0D910C90FFF77CFFEB
:1015A0000646FEF7D9FF0B910A90E3A00CC80A98F3
:1015B000FEF7BCFE099108900D9B0C9AFEF720FFE8
:1015C00007910690DEA00CC80698FEF7AFFE0591C5
:1015D000049003F03DF90546FEF7AAFF039102903F
:1015E000D9A00CC80298FEF7D7FD01910090FEF734
:1015F000FFFF80B2CC4923310860084600684008EC
:1016000009684018C8492331086008460068091D68
:101610000860CF4800681C390860091D0860A021D7
:10162000C248006820304175C04800682030417DC4
:10163000352001F0B7FA0020BB49491C0870491C4D
:101640000870491C0870091D0870891E0880022056
:10165000491F087097E201F013FA01280CD1B24833
:10166000401C0078002807D10120AF49491C0870B0
:10167000B74800680E31086001F000FA012825D152
:10168000A948401C0078012820D1A748801C007878
:1016900000281BD10120A449891C087000F0AEFA73
:1016A000A14A2B3203C200F07BFA9F493331086014
:1016B00000F0CCFA9C4909310870A5480068891CE3
:1016C0000860091D086003200F3908709648801CC7
:1016D000007800281BD19448401C0078012816D1BE
:1016E0009B48006890490F310968401A8E4927319C
:1016F000096888420BD901208B4908708B48006823
:10170000407B2022104301460D2001F04BFA864811
:10171000801C0078002822D1834809E032E22BE2C5
:1017200024E2C3E184E15BE145E12FE125E117E03B
:10173000401C0078002812D17B48C01C007800288B
:101740000DD18348006878490B310968401A764901
:1017500023310968884202D905207349087012E2D2
:101760007148401D0088FF210131884203DD0620B9
:101770006D49087007E201F080F9012865D16A48D7
:10178000401D0088002819D16748C01D0078002836
:1017900014D1664800682030007C802108408028F1
:1017A00005D101216048401D01F06BF906E05F485A
:1017B00000682030807C5C49491D08805A48401DE3
:1017C00000885949C91D0978411A584800682030D5
:1017D000407D8006800E81421ADD544A1268203214
:1017E000527D9106890E524A4F4BDB1D1B78D01853
:1017F00001F047F94D4800682030407D8006800E9A
:101800004949C91D097840184749C91D08701CE09D
:10181000454A521D1288444BDB1D1B78D21AD1B2A7
:10182000434A414BDB1D1B78D01801F02AF93E4892
:10183000401D00883C49C91D0978401A3A49C91D14
:10184000097840183849C91D087001F015F90128B8
:1018500068D13F48006834490B310860881F008810
:1018600000283CD1081F0078002838D12F48006894
:101870002030007C80210840802805D101212A48A1
:10188000401D01F0FEF806E0284800682030807C0A
:101890002549491D0880244A521D1288224BDB1D10
:1018A0001B78D21AD1B2224A1F4BDB1D1B78D018ED
:1018B00001F0E7F81C48401D00881B49C91D097844
:1018C000401A1949C91D097840181749C91D0870DF
:1018D0000120091F08700420C91E087022E0124A66
:1018E000521D1288104BDB1D1B78D21AD1B2104A40
:1018F0000D4BDB1D1B78D01801F0C3F80A48401DC2
:1019000000880949C91D0978401A0749C91D097885
:1019100040180549C91D08700120091F08700420DE
:10192000C91E0870004815E06D0100208C010020E0
:10193000900700205001002000000000000020401F
:101940000000000000408F40000000000000F03F59
:1019500000020020C01C007800280DD18C480068CF
:101960008C490968401A8B4918310968884203D9A3
:10197000052088490B39087005E100208549091FB9
:1019800008700120C91F08700224FCE00020814972
:10199000091F0870891E08807F480068407B20224C
:1019A000104301460D2001F0FDF8012079490B3963
:1019B00008700324E7E000207649091F0870891E9B
:1019C000088075480068407B2022104301460D20A6
:1019D00001F0E8F801206F490B3908700624D2E0C5
:1019E00001216D4800684030017020216A4800687C
:1019F000403041700222684801684031402001F0C7
:101A0000D9F8982164480068203041756248006820
:101A10002030417D352001F0C5F8032000F024F985
:101A200008205C490B390870002008310870AAE0D2
:101A300001F025F8012838D1574800682030007C93
:101A400080210840802804D101215248083001F04B
:101A5000D3F850480830008800280BDD4D48083086
:101A60000088402806DC4B480830008849490C397A
:101A7000087003E0202047490C39087045480C38AD
:101A80000178464801F0B8F84248C01E0078414944
:101A90000C39097840183F49C91E08703C48006855
:101AA0000F3108600920173908706CE000F0E5FF7D
:101AB00000283DD13748083000883649C91E0978CA
:101AC000401A34490C390978884214DD3349314AC7
:101AD000D21E127888182F490C39097801F08CF839
:101AE0002C48C01E00782B490C3909784018294928
:101AF000C91E08701CE0274A08321288254BDB1EDD
:101B00001B78D21AD1B2254A224BDB1E1B78D01883
:101B100001F072F81F48083000881E49C91E097874
:101B2000401A1C49C91E097840181A49C91E087074
:101B300000F0A2FF01280AD11548006815490C31B0
:101B400008600A2017390870012000F08DF810484D
:101B5000006810490C310968401A7D21C90088428B
:101B600003D90B200B490B3908700CE00020094900
:101B70000B390870042406E0002006490B39087070
:101B8000052400E000BF00BF20460EB070BD00007D
:101B900000020020780100208C0100209007002026
:101BA00010B586B00222124801681B311B2000F0DC
:101BB00041FF0F490968C97E09020D4A1268127F68
:101BC00011430846FEF7B4FC05910490FEF7E8FCCB
:101BD0000446FEF7ADFC0391029006A00CC80298E3
:101BE000FEF7A4FB01910090FEF7DAFC06B010BDF1
:101BF0008C0100200000000080844E4000B587B0BA
:101C00000F4801681131112000F00AFF0C490968E2
:101C1000487CFEF7A1FC059104900AA00CC804982A
:101C2000FEF7EEFB0391029001460122D2070398D2
:101C30005040009101900846019907B000BD000096
:101C40008C010020000000000000004010B5054895
:101C500001680C310C2000F0E3FE02480068007BB4
:101C6000401110BD8C01002070B5044600251548B8
:101C700000684078F82188431349087008460078C6
:101C800084421ED0032C01D1012500E000250E481E
:101C9000401C0078854205D00B48401C0570284642
:101CA00000F0B3FF074800684078F821084020435F
:101CB000044909684870034800684178012000F031
:101CC00071FF70BD8C01002088010020014908705F
:101CD000704700006D01002070B505460C460648AF
:101CE0000480028829460548FEF730FA0720024999
:101CF0001339087070BD000080010020900700209B
:101D000070B504460D4607480078002804D12946DE
:101D10002046FFF7F3FB03E02946204600F036F8A3
:101D200070BD00004C01002010B509480949086049
:101D30000949086000F014F800F0ACFE01200749E2
:101D400008700846007800F0ADFE00F033F810BDD2
:101D5000200700208C010020D40100204C0100202D
:101D600010B5032201210848FFF778F90322142156
:101D700005488038FFF772F90322082102488038AD
:101D8000FFF76CF910BD00000041005070B505462A
:101D90000C460648008820800020044908802288DC
:101DA00003492846FEF7D2F970BD0000C6010020A5
:101DB0009008002010B500202B49087000F0B8FBF7
:101DC0006F222A49012000F035FE202028490968A9
:101DD00008736F222549012000F0ECFE25490868B0
:101DE00000F0D6FC2349887900F0A6FD2149C87986
:101DF00000F0A8FB1F49087A00F096FC1D494879BD
:101E000000F07AFD1B49487A00F0BCFB1A4800F04C
:101E1000C3FD1849087E00F0A7FC012000F0D0FBAC
:101E200014480068154988420DD9802000F036FC1E
:101E3000012000F04DFC14200E49087104200856C2
:101E400000F0D6FC0CE0002000F028FC002000F0A0
:101E50003FFC0E20074908710420085600F0C8FC1A
:101E6000012000F0E9FB10BDC40100202107002083
:101E7000D4010020A8010020FF0300000057A6168F
:101E800010B586B00124F948037801F0C5FB0B07B3
:101E90000874D7F4F3F2F1F0EFEEF00029E301203B
:101EA00000F0CAFB9D20F24909684874F0480068B8
:101EB000417C112000F076FEEE48C07A012815D151
:101EC000EC48017BEA48006820300171E84801686D
:101ED0001C311C2000F0A4FDE5490968097F890632
:101EE000090EE54A505800F053FC04E0FF21E04899
:101EF000006820300171DE4800682030017924201C
:101F000000F050FE0021DA48006820304177D848C0
:101F10000068203081770222D54801683D31402099
:101F200000F048FED348807A012803D1062000F053
:101F300083FB0EE0CE480068C07BCD49096848733A
:101F4000CB480068417B0D2000F02CFE052000F0FE
:101F500073FBFF210131C948FEF711F9C5484069FB
:101F6000C24924310860C64800681C390860022054
:101F700008390870BDE2C349122000F051FDC14884
:101F800000784021084040281ED1BD480068B7496C
:101F900008310860B748C07A01280ED1B4480168FA
:101FA0001C311C2000F03CFDB1490968097F8906FD
:101FB000090EB14A505800F0EBFB4021122000F00E
:101FC000F1FD0320A9490870AE48007802210840BD
:101FD000022820D1AA480068A44908310860A54811
:101FE000C07A01280ED1A24801681C311C2000F0E3
:101FF00017FD9F490968097F8906090E9E4A5058B6
:1020000000F0C6FB0221122000F0CCFD00F082FAA5
:102010009649091D08709748807A01280DD1984883
:102020000068924908310968401A904924310968CA
:10203000884202D904208D4908705AE28C48016810
:102040001231122000F0ECFC89480068807C2021CD
:102050000840202814D1122000F0A4FD8548807A81
:10206000012809D18149087009E025E2FFE13FE23A
:10207000F4E1C4E147E140E102207C49087038E224
:1020800005A9192000F0CCFC6B46187D8021084280
:102090000DD0187DC043401C0006800E73491431DA
:1020A000087008460078404240B2087005E06B4670
:1020B000187D80106D49143108706D4801681A311F
:1020C0001A2000F0ADFC6B4800686F49884239D295
:1020D000664814300021415600291CDA01460020D0
:1020E0000856FEF725FA0591049061490968887E33
:1020F000FEF732FA0391029064A00CC80298FEF732
:102100004BF801910090059B049AFEF745F8574A59
:102110001C3203C24FE056490968887EFEF71CFA5C
:10212000059104905BA00CC80498FEF7FFF803919A
:10213000029056A00CC80298FEF72EF84B4A1C32AB
:1021400003C238E0494814300021415600291CDA06
:10215000014600200856FEF7EBF90591049044492A
:102160000968887EFEF7F8F9039102904BA00CC82D
:102170000298FEF711F801910090059B049AFEF772
:102180000BF83A4A1C3203C215E039490968887EC7
:10219000FEF7E2F9059104903EA00CC80498FEF702
:1021A000C5F8039102903DA00CC80298FDF7F4FF1A
:1021B0002E4A1C3203C22F48807A012831D12C4884
:1021C0000068C07B2A490968487329480068417B38
:1021D0000D2000F0E7FC2748407A01280ED1244862
:1021E0000068203080782149891C088020480068D8
:1021F00020308178214800F044FC70E01C480168E0
:102200001331132000F00CFC19480068C07C1749FA
:10221000891C088016480068C17C184800F031FC11
:102220005DE0134801681031102000F0F9FB1148FF
:10223000407A012836D10E480068203080780B495A
:10224000891C08800A480068007C094909684873AD
:1022500007480068417B0D2000F0A4FC044800689A
:1022600020308178054800F00CFC38E0C4010020E3
:10227000D4010020A8010020B454000090080020E0
:1022800000020020ED010020008F4233000000001A
:10229000008064C01B9E5E29CB10F13F000000004F
:1022A00000A063C0954801681331132000F0B8FB0B
:1022B00092480068C07C9249088090480068007C81
:1022C0008E49096848738D480068417B0D2000F0F5
:1022D00069FC8A480068C17C8A4800F0D2FB8A48C1
:1022E000807A012803D18649891E087003E0022004
:1022F0008349891E08700224FBE001208049891E61
:1023000008700324F5E0012000F096F97E48C07AB9
:10231000012819D1F5207949096848747A48017B68
:102320007648006820300171744801681C311C2017
:1023300000F076FB71490968097F8906090E734A26
:10234000505800F025FA08E0F7206C4909684874F5
:1023500000216A4800682030017168480068203018
:102360000179242000F01EFC64480068417C1120A3
:1023700000F018FC62480A300088C1B25F4800686B
:10238000203081705D48006820308178222000F084
:1023900009FC002059490968887358480068817B06
:1023A0000E2000F0FFFB55480068807B5349096808
:1023B000487352480068417B0D2000F0F3FB4F4802
:1023C0000068203081784F4800F016FC41214B48CE
:1023D00000682030417740214848006820308177EC
:1023E0000222464801683D31402000F0E3FB032013
:1023F00000F022F906204249891E087079E044491C
:10240000122000F00DFB42480078082108400828FF
:1024100006D1122000F0C6FB07203949891E08703A
:102420003B48007802210840022816D13648C07A7D
:1024300001280ED1314801681C311C2000F0F0FA4F
:102440002E490968097F8906090E304A505800F064
:102450009FF90221122000F0A5FB4AE0012000F0C4
:10246000EBF800202649891E0870042441E0012071
:1024700000F0E2F8FA202149096848741F48006812
:10248000417C112000F08EFB00211C4800682030A8
:1024900041771A4800682030817702221748016886
:1024A0003D31402000F086FB072000F0C5F80A20EF
:1024B0001349891E08701CE000F0E1FA012816D1CA
:1024C0000421122000F06EFB00F0DAFA012809D195
:1024D0000121122000F066FB01200949891E0870C5
:1024E000082404E000200649891E0870072400E043
:1024F00000BF00BF204606B010BD0000D401002080
:10250000C601002090080020A8010020B45400005B
:10251000EC01002010B5054801680C310C2000F0DA
:102520007FFA02480068007B401110BDD4010020F2
:1025300010B5034801683F31422000F071FA10BD28
:10254000D401002010B504460C4801681D311D203F
:1025500000F066FA09480068407FF12108406100F8
:10256000084306490968487704480068417F1D20F0
:1025700000F018FB0248C47110BD0000D401002017
:10258000A801002010B504460B4801681D311D202C
:1025900000F046FA08480068407FFE2108402043CA
:1025A00005490968487704480068417F1D2000F00C
:1025B000F9FA0248447210BDD4010020A80100209D
:1025C00010B504460C4801682631262000F028FA90
:1025D0000948006820308079F7210840E10008436D
:1025E00005490968203188710348006820308179E5
:1025F000262000F0D7FA10BDD401002010B5044603
:102600000C4801683031312000F00AFA09480068AE
:102610002030017CF820014021430648006820302A
:102620000174044800682030017C312000F0BAFABF
:1026300010BD0000D401002070B5044600251548E7
:1026400000684078F82188431349087008460078EC
:1026500084421ED0032C01D1012500E000250E4844
:10266000401C0078854205D00B48401C0570284668
:1026700000F0CBFA074800684078F8210840204372
:10268000044909684870034800684178012000F057
:1026900089FA70BDD4010020D201002010B5044693
:1026A0000A4801680931092000F0BAF907480068B2
:1026B000407A4006400E20430449096848720348A6
:1026C0000068417A092000F06DFA10BDD4010020A5
:1026D00010B504461348016849314D2000F0A0F9B7
:1026E000104801680931092000F09AF90D48006886
:1026F000407A80210840802807D1012C0AD1872107
:10270000084800684030417204E0842105480068B0
:1027100040304172034800684030417A4D2000F05B
:1027200041FA10BDD401002010B504460C480168E0
:102730001E311E2000F074F909480068807FFB21DB
:102740000840A100084306490968887704480068E2
:10275000817F1E2000F026FA0248047210BD00009E
:10276000D4010020A801002010B5044606480068E6
:10277000203084700448006820308178222000F0E6
:1027800011FA0248047610BDD4010020A8010020EF
:102790001FB50446124804602046FDF7DDFE039194
:1027A000029010A00CC80298FDF72AFE019100903B
:1027B000FDF71EFF04462002000E0C4909688871CF
:1027C0002004000E09490968C871084909680C729B
:1027D000032206480168891D062000F0EBF91FBDA1
:1027E000A80100200000000080844E40D401002099
:1027F00010B504463B4801680931092000F010F982
:102800003848016849314D2000F00AF93548006820
:10281000407A8021084080283FD13248006840300B
:10282000407A8721084087281BD1052C00DA05242F
:10283000142C00DD14242B480068407A8F210840B6
:10284000703028490968487226480068407AF021AB
:102850000840611F0907090F0843224909684872A7
:1028600037E0022C00DA0224112C00DD11241D486F
:102870000068407A8F21084070301A490968487210
:1028800018480068407AF0210840A11E0907090F86
:1028900008431449096848721BE0601C01DA0024EF
:1028A000E4430E2C00DD0E240E480068407A8F2190
:1028B000084070300B49096848720A480068417A3C
:1028C000F0200140601C0007000F0143054800682C
:1028D000417204480068417A092000F063F9024817
:1028E000047110BDD4010020A80100200149087026
:1028F00070470000C401002010B504460C48016870
:102900001D311D2000F08CF809480068407F000749
:10291000000F210108430649096848770448006808
:10292000417F1D2000F03EF90248447110BD0000B7
:10293000D4010020A801002010B504460C2C01DDB4
:102940000C2402E0062C00DA0624062C03D1052014
:10295000FFF754FE02E00320FFF750FE0C48016829
:102960001E311E2000F05CF809480068807F0007D7
:10297000000F210108430649096888770448006868
:10298000817F1E2000F00EF90248847110BD000006
:10299000D4010020A801002010B5044602220E48F0
:1029A00001681E311E2000F045F80B480068817F49
:1029B000FC2001402012FC2290430143064800689D
:1029C000817705490968CC770222034801681E31E6
:1029D0001E2000F0EFF810BDD401002070B50546B0
:1029E0000C4606480480028829460548FDF7AEFBE0
:1029F000052002490C39087070BD0000D00100208C
:102A00009008002010B505480078002802D1FEF794
:102A100089FD10BDFFF734FAFBE700004C010020F0
:102A200030B504460D4601222946204600F002F842
:102A300030BD0000F0B504460D46164600200D4995
:102A400008600C49403988606006400E00F0E0FBE9
:102A5000002705E0002000F0DBFBE855781CC7B23A
:102A6000B742F7DB0120034908600249403988601A
:102A7000F0BD0000804200507047704770477047BB
:102A8000704730B504460D462A4621460020FFF720
:102A9000D1FF30BD10B5012000F05EF8002000F03D
:102AA0005BF810BD10B5044628480078A04200D15C
:102AB00010BD26480470401E0470007801282AD1F9
:102AC0000020FFF7B9FD2248006840784006400E1C
:102AD00080301F49096848701D480068417801200E
:102AE00000F060F80120FFF7A7FD002118480068FA
:102AF0002030417716480068203081770222144840
:102B000001683D31402000F055F86F221149012045
:102B1000FFF790FF18E00020FFF78EFD0C480068DB
:102B200040784006400E0A49096848700848006825
:102B30004178012000F036F80120FFF77DFD6F227B
:102B400004490120FFF776FFB2E700004D010020A5
:102B5000D4010020210700207047000070B5044612
:102B60000D4607480078002804D129462046FFF783
:102B7000B3F803E029462046FFF730FF70BD0000A0
:102B80004C01002010B506480078002803D1012030
:102B9000FFF79CF802E00120FFF7A8FE10BD00003F
:102BA0004C01002013B50446012201A9204600F083
:102BB00001F81CBDF0B504460D46164600200D492F
:102BC00008600C494039886021468022114308463C
:102BD00000F01EFB002704E0E85D00F019FB781C04
:102BE000C7B2B742F8DB0120024908600149403909
:102BF0008860F0BD8042005030B504460D462A463C
:102C000021460020FFF7D6FF30BD704710B51648AB
:102C1000006804210843144908601020FEF7F2F808
:102C20000720114908610846006AC90108430E4996
:102C3000086208460068012108430B4908600B48F8
:102C400008620520FEF7DEF81A20074908610848E7
:102C500088600848486100F005FB0320052109074A
:102C6000C8638002486310BD000200501742000094
:102C700018000300002002010520000780680221DF
:102C80000843052109078860704700000A49020EC1
:102C900092008A58012181400A430749030E9B0094
:102CA000CA50020E92008A58012181408A4302498B
:102CB000030E9B00CA5070470800005006E05920E0
:102CC00005490860162008608820086002480068EE
:102CD0000128F4D170470000000100501CB50446E3
:102CE000FFF7ECFFFEF784F911494869FEF78AF90E
:102CF00000900F494969081DFEF784F901900C49BD
:102D00004869FEF757F90A4948692146FEF790F9E4
:102D1000074A01995269101DFEF78AF9FEF740F93A
:102D2000FFF7AAFF00BF00200249086000BF1CBDDA
:102D300000C00050000100501CB50446FFF7BEFF64
:102D4000FEF756F912494869FEF75CF90090104900
:102D50004969081DFEF756F9019001940C4948692C
:102D6000FEF728F90A4A00995069FEF761F9084A06
:102D700001995269101DFEF75BF9FEF711F9FFF793
:102D80007BFF00BF00200349086000BF1CBD00009E
:102D900000C000500001005010B5D448008DC4B2EE
:102DA000AC219C2001F034FE40219D2001F030FE3A
:102DB0009C21A02001F02CFE0021A12001F028FE82
:102DC000D121A22001F024FEB721A32001F020FE92
:102DD0000021A42001F01CFE5321A52001F018FEC3
:102DE000AC21B02001F014FE8C21B22001F010FEC5
:102DF0000221B32001F00CFE0821B42001F008FEEE
:102E00002A21B52001F004FE2D21B62001F000FE9C
:102E1000D421B72001F0FCFD0021B82001F0F8FD1D
:102E20000021B92001F0F4FD0021BA2001F0F0FDED
:102E30000021BB2001F0ECFD0021BC2001F0E8FDE9
:102E40000021BD2001F0E4FD0021BE2001F0E0FDE5
:102E50000021BF2001F0DCFD0021C02001F0D8FDE1
:102E60000021C12001F0D4FD0021C22001F0D0FDDD
:102E7000FF21C32001F0CCFDFF21C42001F0C8FDDB
:102E8000FF21C52001F0C4FDFF21C62001F0C0FDD7
:102E90000021D62001F0BCFD9D21EE2001F0B8FDFF
:102EA0004921EF2001F0B4FD2C21F02001F0B0FD0C
:102EB0002B21F12001F0ACFD5021F22001F0A8FD02
:102EC000234600F0A9FB140B1825323F4C596673BA
:102ED000808D9AA7B4C1CEDBE8F7F5175321F52012
:102EE00001F096FD4B21F62001F092FD0021F72024
:102EF00001F08EFDF8E05321F52001F089FD4D2110
:102F0000F62001F085FD8021F72001F081FDEBE046
:102F10005321F52001F07CFD5021F62001F078FDD1
:102F20000021F72001F074FDDEE05321F52001F0CF
:102F30006FFD5221F62001F06BFD8021F72001F09A
:102F400067FDD1E05321F52001F062FD5521F62007
:102F500001F05EFD0021F72001F05AFDC4E053218D
:102F6000F52001F055FD5721F62001F051FD80219B
:102F7000F72001F04DFDB7E05321F52001F048FDA9
:102F80005A21F62001F044FD0021F72001F040FD18
:102F9000AAE05321F52001F03BFD5C21F62001F071
:102FA00037FD8021F72001F033FD9DE05321F5200E
:102FB00001F02EFD5F21F62001F02AFD0021F7200F
:102FC00001F026FD90E05321F52001F021FD612163
:102FD000F62001F01DFD8021F72001F019FD83E0AE
:102FE0005321F52001F014FD3221F62001F010FDEF
:102FF0000021F72001F00CFD76E05321F52001F0CF
:1030000007FD3421F62001F003FD8021F72001F0B7
:10301000FFFC69E05321F52001F0FAFC3721F6208E
:1030200001F0F6FC0021F72001F0F2FC5CE05321F6
:10303000F52001F0EDFC3921F62001F0E9FC8021BA
:10304000F72001F0E5FC4FE05321F52001F0E0FC12
:103050003C21F62001F0DCFC0021F72001F0D8FC37
:1030600042E05321F52001F0D3FC3E21F62001F08F
:10307000CFFC8021F72001F0CBFC35E05321F52077
:1030800001F0C6FC4121F62001F0C2FC0021F7202E
:1030900001F0BEFC28E05321F52001F0B9FC4321EA
:1030A000F62001F0B5FC8021F72001F0B1FC1BE017
:1030B0000DE0FFE75321F52001F0AAFC4621F620A0
:1030C00001F0A6FC0021F72001F0A2FC0CE0532146
:1030D000F52001F09DFC4821F62001F099FC8021AB
:1030E000F72001F095FC00BF00BF10BD14020020C6
:1030F00010B50446FDF798FE01283ED1FEF774F99D
:103100001E49C8871E4801F027FC1E490870084662
:103110000078002818DD1A4800781849C98C8842C0
:1031200005D1184801781648FEF718F908E0144848
:103130000078FF2804D1134801781148FEF7E6F81B
:1031400000201049087018E00F480078002814DDAE
:103150000D4800783C2810DA0848C08F1E2808DA8D
:1031600009480178094801F099FC002006490870D7
:1031700003E0054800780449087010BD14020020DF
:103180000406002029010020280100204406002018
:1031900010B51D48C08C1D49087008460078491CB0
:1031A0000978884211D01848C08CFF2808DA1648E0
:1031B000C08C002804DD1449C98CC8B2FFF78EFD0D
:1031C000124800781149491C08700F48008D0F49BA
:1031D000891C087008460078491C0978884212D07A
:1031E0000948008D142808DA0748008D002804DB00
:1031F0000549098DC8B2FFF79FFD0448801C00787F
:103200000249C91C087010BD1402002048010020AA
:1032100010B50146002000221EE08023194203D091
:1032200001230F4C236102E000230D4C23614B0668
:10323000190E4306180E0123094CA3602346DB68D0
:10324000002B02D00123184301E0FE231840002385
:10325000034CA360531CDAB2082ADEDB10BD000069
:103260004042005070B51248006945076D0FFDF7E8
:103270005DFD10490860022D03D0A8000E490C58CE
:1032800001E00C4804680A4880690007000F461CEA
:1032900031462046FCF744FF0849086008490748C2
:1032A00000684A108018FCF73BFF0649086070BDB3
:1032B000000200500401002094540000FC00002093
:1032C00040420F00000100207047016801225207B0
:1032D000114301607047000030B589B004462022D8
:1032E000194901A8FCF732FF1848844206D1184852
:1032F0004069072109020840050A1AE013482030F6
:10330000844206D112484069072109030840050B91
:103310000FE01048844206D10D4840690721090496
:103320000840050C05E00A484069072109050840E6
:10333000050D022D03D10848006809B030BDA80072
:1033400001A90858F9E700004454000000000140BA
:103350000002005000001140FC000020F7B582B0D0
:1033600004460D462046FFF7B7FF0646002700201B
:10337000019070080499884201D202271BE00120C5
:103380008006864203D307200190F6080EE0012054
:103390004006864203D303200190B60806E00120D0
:1033A0000006864202D30120019076083046049937
:1033B000FCF7B6FE07460198284320606760019835
:1033C000401C784301463046FCF7AAFE05B0F0BD2C
:1033D00001680122920711430160704710B500BFD8
:1033E00011488068C007C00F01281BD100BF0E49DB
:1033F000886000BF0D480078002810D00C48006895
:10340000401C0B490860084600680A490988884240
:1034100008DB01F003FA00200549086002E0002003
:103420000349086010BD0000200001400400002096
:10343000080000200C00002000B500BF194880687B
:10344000C007C00F01282CD100BF1649886000BFFB
:1034500015480068401C1449086008460068142894
:1034600006D30020086011480068401C0F4908601E
:103470000F480078002811D00E480068401C0D4904
:103480000860084600680849091D0988884208DB69
:1034900001200949087001F027FC02E000200549DD
:1034A000086000BD000011401C0100201401002034
:1034B0000D010020100100200C01002010B509486A
:1034C000C069C007C00F02D001F0B0F908E005489C
:1034D0008069012109070840000F01D001F0AEF911
:1034E00010BD00000000054000B50B48C069C007D2
:1034F000C00F0DD009490A4A1268881801F0BEFBB6
:1035000007480068401C0649086001F0F7FB01E02D
:103510000148806900BD00000000154084050020BE
:1035200008010020F0B585B004460D461E4801AFE5
:103530004EC84EC7002000901C4840690321090670
:103540000840060E002020630320E060A0681849B0
:103550000840A060012E04D1FDF7AAFBB10001AA2A
:103560005050002D1ED0B10001AA51586A08881889
:103570002946FCF7D5FD801E00900E490098884230
:103580000BD9B10001AA5158EA0088182946FCF766
:10359000C7FD0009801E606204E00321090700984E
:1035A0000843606205B0F0BD6454000000020050A2
:1035B0000FFFF0FFFFFF000070B50346002510E08D
:1035C000002406E0641C01208007844201D300200F
:1035D00070BD9869012636073042F3D0485D186007
:1035E0006D1C9542ECD12846F2E72021020C01D057
:1035F00010211046020A01D008391046020901D0F4
:10360000091F1046820801D0891E1046420801D0C9
:10361000881E7047081A704730B47446641E2578B7
:10362000641CAB4200D21D46635D5B00E31830BCF6
:10363000184702E008C8121F08C1002AFAD17047D3
:103640007047002001E001C1121F002AFBD1704722
:1036500000B50021032001F0DBF90021042001F076
:10366000D7F900BD10B50246002009E01478521CBD
:1036700003125C406300054CE35A0402634098B2B5
:103680000B464C1EA1B2002BF0DC10BD42520000D4
:10369000F8B504460D460026207804283FD160780E
:1036A000022806D0042812D005281AD006282DD1C9
:1036B00022E008202070022060700020A070892085
:1036C000E070002020716071062028801EE0062036
:1036D0002070042060700020A070E070042028801A
:1036E00014E006202070052060700320A070E82000
:1036F000E0700420288009E00620207060705520CA
:10370000A070F020E0700420288000BF00BF0027D8
:10371000002F05D0384601F06FF8064600E003267A
:103720003046F8BD10B5002407480078012807D1BD
:10373000054894300068804700200349087000E085
:103740000624204610BD000044000020F0B585B0DE
:1037500004460D46002001902888052850D1607845
:103760000602A0780643701C86B2E078000203903F
:103770002079039908430390039801283DDB7D21BC
:1037800009010398884238DA029400202880012039
:10379000029C2070029C601C02902888401C28809B
:1037A00003984007400F07D00398C117490F091825
:1037B000C910491CCFB205E00398C117490F091879
:1037C00049050F0E029807700298401C0290288845
:1037D000401C288031460023039A029800F092FC96
:1037E00000900098002804D0009801F005F801909E
:1037F00008E02888C019288004E00320019001E037
:1038000003200190019805B0F0BDF0B585B00446E5
:103810000D4600200190288805284FD160780602C7
:10382000A0780643701C86B2E078000203902079ED
:10383000039908430390039801283CDB7D2109018B
:103840000398884237DA0294002028800220029CE4
:103850002070029C601C02902888401C28800398DD
:103860004007400F07D00398C117490F0918C91026
:10387000491CCFB205E00398C117490F0918490543
:103880000F0E029807700298401C02902888401C76
:1038900028803146039A029800F0E2FC00900098DC
:1038A000002804D0009800F0A7FF019008E02888C5
:1038B000C019288004E00320019001E0032001905A
:1038C000019805B0F0BDFEB504460D4600200190FC
:1038D0002888052839D160780602A0780643701C34
:1038E00086B2E07807022779012F2BDB7D2F29DCB8
:1038F0000294002028800320029C2070029C601CFF
:1039000002902888401C28807806000E02990870D2
:103910000298401C02902888401C28803A46314674
:103920000023029800F044FD00900098002804D085
:10393000009800F061FF019009E0288879004018A4
:10394000288004E00320019001E003200190019809
:10395000FEBDFEB504460D460020019028880528CE
:1039600039D160780602A0780643701C86B2E078F0
:10397000070220790743012F2ADB7D2F28DA0294E2
:10398000002028800420029C2070029C601C029071
:103990002888401C28807806010E02980170029841
:1039A000401C02902888401C28803A4631460298E4
:1039B00000F05EFD00900098002804D0009800F010
:1039C0001BFF019009E0288879004018288004E056
:1039D0000320019001E0032001900198FEBDF0B5A5
:1039E00087B004460D460020019028880A2868DB2D
:1039F000607800020690A078069908430690069821
:103A0000401C80B20690E07800020590207905996C
:103A100008430590607900020490A0790499084356
:103A200004900498401C80B20490E0790002039056
:103A3000207A039908430390607A02900598012840
:103A40003DDB05987D283ADC0398012837DB039895
:103A5000792834DC03984000029988422FD120460F
:103A60000A300123039A049900F0A2FC0746002FB4
:103A70001ED126462880172030703446761C2888B0
:103A8000401C288005984006000E3070761C28885F
:103A9000401C288030460023059A069900F088FCD7
:103AA0000746002F04D1288805994900401828802E
:103AB000002F06D0384600F09FFE019001E0032061
:103AC0000190019807B0F0BD70B504460D46064858
:103AD00002880649601CFCF739FB03480088401C3B
:103AE0002880002070BD00004000002064050020F8
:103AF000FEB504460D4600200090288805282BD1ED
:103B000060780602A0780643701C86B220790028EF
:103B10001FD1E078FF2802D0E078002819D10020DA
:103B20006B465871E078FF2802D10120187102E03D
:103B300000206B4618710122314601A8134600F09F
:103B4000E1FA0746002F09D0384600F055FE0090F4
:103B500004E00320009001E0032000900098FEBDE7
:103B6000F8B504460D46002000902888052813D19A
:103B700060780602A0780643701C86B201223146A6
:103B8000E01C134600F014FC0746002F06D0384610
:103B900000F032FE009001E0032000900098F8BD94
:103BA000F0B585B004460D46002001902888052810
:103BB0003DDD60780602A0780643701C86B2E0788E
:103BC000070220790743607903907807400F08D0F7
:103BD0003846F917490FC919C910491CC9B20291D1
:103BE00006E03846F917490FC9194905090E02912F
:103BF000012F19DB7B200001874215DC0399029815
:103C0000884211D13A463146A01D012300F07AFACC
:103C100000900098002804D0009800F0EDFD01907D
:103C200007E00520288004E00320019001E0032044
:103C30000190019805B0F0BDFEB504460D46002088
:103C400001902888062829DB60780602A0780643C0
:103C5000701C86B2E07807022079074360790290F1
:103C6000012F18DB782F16DC7806000E02998842A7
:103C700011D13A463146A01D012300F099FB009076
:103C80000098002804D0009800F0B6FD019007E0ED
:103C90000520288004E00320019001E0032001902A
:103CA0000198FEBDFFB581B004460D4616460A9F39
:103CB00000200090FF2D03D0002D01DBFE2D02DD42
:103CC000022000903AE01F480570002C21D11E48C8
:103CD0001C49C91D08601D48091D08601C48083999
:103CE00008601C480C3108600020091D08601A4853
:103CF0001A4908601A481B4908601B481B4908609C
:103D00003B4631460F480078049A00F039F900909C
:103D100002E00220009000BF00BF009800280DD1F3
:103D200001F038F8002802D10320009006E0054891
:103D3000401C0470012003498D390870009805B0BB
:103D4000F0BD0000D1000020C9400000ED4000009F
:103D500041400000D53F0000814E0000E8000020F7
:103D6000554F0000EC000020114F0000F000002033
:103D700038B5002581480078002801D0062038BDDC
:103D8000684600F0F5FF01287ED16B461B78FFF7EF
:103D900043FC0504058EF02EF100EBE0774A8A32F1
:103DA000911F081D034614331B6898470546002DD4
:103DB0000FD172488830007870498D310978884277
:103DC00004D06E4888300078FF2802D1022000F02D
:103DD000E9FF082D0AD169488830007867498D319C
:103DE0000978884202D1042000F0DCFFC2E0634879
:103DF0008430006800786149893108700120C91C4D
:103E0000087000241CE0E0005C49091D085C0028E3
:103E100000D117E0E0005949091D085C8531097897
:103E200088420CD1E0005549091D4018863142688E
:103E3000881F0068904751498C31087002E0641C6B
:103E4000102CE0DB00BF4D4888300078FF282DD0D3
:103E50004A488C30007800281ED0002047498A311B
:103E60000880481E01788020014344488A30028837
:103E70000088401C414B8A331880981F0068815489
:103E8000981C0278801E00E075E001880088401CC4
:103E90001880981F0068425438488A300288801F72
:103EA00001680930007800F037FCC5B262E03348A1
:103EB0008430006800783149893108700120C91CBC
:103EC000087000241CE0E0002C49091D085C002853
:103ED00000D117E0E0002949091D085C8531097807
:103EE00088420CD1E0002549091D401886314268FE
:103EF000881F0068904721498C31087002E0641CDB
:103F0000102CE0DB00BF1D4888300078FF282ED041
:103F10001A488C30007800281DD0002017498A31BB
:103F20000880481E01788020014314488A300288A6
:103F30000088401C114B8A331880981F00688154F8
:103F4000981C0178801E02880088401C1880981FE9
:103F5000006881540EE009488A300288801F016899
:103F600009300078054B90331B689847054601E0FF
:103F7000FFE700BF00BF002001E700004400002071
:103F8000F8B50C4615461E460027FDF705F83346E2
:103F900008222946204600F017FF012801D00327F8
:103FA00012E04B200002854202D92320009004E059
:103FB00069000748FCF7B4F80090009988B200F057
:103FC0003FFF012800D00327FCF7E8FF3846F8BD83
:103FD000A07F1700F8B504460D4616460027FCF7EB
:103FE000DBFF15480088042811DB134801881348BB
:103FF00000F0DAFD00280AD11048007820700E4841
:104000000088C01E30800D48401C28600FE00A4820
:10401000008804280ADB09480079207006480088D7
:1040200030800648801D2860082700E00527FCF73F
:10403000B5FF3846F8BD00003E00002064040020B3
:10404000F8B504460D46164600200090FCF7A4FF84
:104050001B48007801282DD1681E1949C91C086029
:104060000120091D0880081F0068047008460088A8
:104070008019088008460188001F006800F094FD40
:1040800007460F4AD21D1088421C0D4BDB1D1A80BB
:104090000C4A175439121A461088421C1A80094AD1
:1040A000115401201946083908700121002000F040
:1040B00095FD01E005200090FCF770FF0098F8BD29
:1040C000350000206404002010B5FCF765FF0020D7
:1040D000054908700021012000F080FD00F0B6FDC8
:1040E000FCF75CFF10BD00003500002010B5FCF7A8
:1040F00053FF0021084600F071FD00F091FDFCF730
:104100004DFF10BDFFB589B004460D461646002090
:1041100008903046F117490F8919C910491C0691BA
:1041200000F024FE00280FD000F03CFD4849401864
:104130000590012004900820039046480088C0B2F2
:10414000029001200C9009E0434805900120049062
:104150000820039041480088C0B20290049885422C
:1041600071DBA819039A0499891888426BDC0299BB
:10417000681AC117490F0918CF100299681AC11798
:10418000490F0918C910C900411A07910C98002855
:1041900002D0012855D126E00EE007998BB23946AE
:1041A0007F1C059A88180822194600F00BFF207022
:1041B000641C0698401E069006980028EDDC641EDC
:1041C0003046F117490F8919C910C900711A8EB20A
:1041D00020780821891B8840207020780821891BBD
:1041E000084120702DE010E02378641C079880B20D
:1041F000009038467F1C05994018082201900099CC
:1042000000F0F7FE0698401E069006980128EBDCA9
:104210003046F117490F8919C910C900711A8EB2B9
:10422000002E0DD02378641CF2B2079880B2009063
:1042300038467F1C059940180190009900F0D9FE7E
:1042400000BF02E0FFE70120089008980DB0F0BD24
:10425000540200201A00002031000020120000202B
:10426000F0B589B004460F46154600200890284650
:10427000E917490F4919C910491C059100F076FD4D
:1042800000280CD000F08EFC45494618012004900F
:104290000820039043480088C0B2029008E0424ED4
:1042A000012004900820039040480088C0B202908A
:1042B000049887426EDB7819039A0499891888421A
:1042C00068DC0299781AC117490F0918C9100791BB
:1042D0000299781AC117490F0918C910C900411A63
:1042E000069100F043FD00282DD010E02378641CD7
:1042F000069880B200900798411C80190822079107
:104300000190009900F075FE0598401E05900598F3
:104310000128EBDC2846E917490F4919C910C900E3
:10432000691A8DB2002D37D02378641CEAB2069842
:1043300080B200900798411C801907910190009964
:1043400000F057FE28E00EE006998BB207994A1C50
:10435000881907920822194600F034FE2070641C68
:104360000598401E059005980028EDDC641E28463F
:10437000E917490F4919C910C900691A8DB2207887
:104380000821491B8840207020780821491B0841DA
:10439000207001E001200890089809B0F0BD0000ED
:1043A00044020020180000203000002010000020EF
:1043B000FFB583B004460020029000F0D7FC00282F
:1043C0000ED000F0EFFB0001254FC5190126082093
:1043D000019024480088C0B200900120069007E0B8
:1043E000214D01261820019020480088C0B200907D
:1043F000B14230DB8818019FF719B8422BDC0098D6
:104400000B1A0698002802D0012823D10FE00BE0F8
:104410005800285A00122070641C5800285A207036
:10442000641C5B1C501E82B2002AF1DC12E00EE01C
:104430002078641C00025F00E8532078641C5F0051
:10444000EF5B38435F00E8535B1C501E82B2002ACA
:10445000EEDC00BF01E001200290029807B0F0BD41
:10446000640300201E00002014020020160000201B
:10447000FEB503460020029000F078FC00280CD026
:1044800000F090FB0001204FC51901260820019083
:104490001E480088C0B2009007E01D4D012608208C
:1044A00001901C480088C0B20090B14227DB8818F8
:1044B000019FF719B84222DC00980C1A1CE000F0AA
:1044C00055FC00280CD018785B1C00026700E853EC
:1044D00018785B1C6700EF5B38436700E85308E01F
:1044E0006000285A001218705B1C6000285A18706F
:1044F0005B1C641C501E82B2002AE0DC01E001203B
:1045000002900298FEBD0000640200201C00002002
:10451000040200201400002010B50322B02111482D
:10452000FCF79CFD032202210F48FCF797FD0322B4
:1045300048210C48FCF792FD0C48FCF717FD0020C1
:104540000B4948600B48FCF711FD0021362000F0B4
:104550005FFA0446FCF772FF00218E2000F058FA43
:10456000652410BD0040005000410050102700009D
:1045700080420050400D030010B5FCF787FBFCF7AC
:104580003FFF0549086009680868804702490968D3
:104590008868804710BD0000F401002010B5334842
:1045A00000683349086033480078012835D12F4826
:1045B000006831490968401A642855D32B480468BB
:1045C00000682D4908602D480078401C2B49087070
:1045D0002B480068012102692848904700BF2849FC
:1045E0000968486980470428F9D1204804680068B0
:1045F00021490968441A23480078002806D0002081
:10460000204908700120204988632DE001201D49C0
:10461000087000201C49886326E019490968486928
:104620008047022820D11349891E1448FDF768FBF2
:104630001048801E0088002816DD124800780028E7
:1046400006D000200F49087001200F49886305E05B
:1046500001200C49087000200B4988630748007846
:10466000401CC0B20549087010BD000014010020B4
:1046700000020020F2010020F80100209009002033
:10468000F4010020FC0100200042005008B500BFEA
:1046900006E059201E49086016200860882008603E
:1046A0001B4800680128F4D100BFFEF7AFFAFCF701
:1046B0000DFDFCF7E8FCFCF701FCFCF71BFD1549C0
:1046C0000870FFF729FF00F017F9FFF755FF00BF4B
:1046D00000200F49086000BF00220E4800920178B8
:1046E00010464B23DB01FFF7DDFAFFF71BF80EE066
:1046F000FFF73EFBFCF7A4FBFCF714FCFCF7A6FA63
:10470000FEF746FD0020FEF7F3FCFFF747FFEFE75B
:104710000001005000000020F8B504460D46164682
:1047200000200090FCF738FC002E03D1FCF736FC8B
:104730000098F8BD2E480078012853D12D482C4907
:10474000C91C0860FF200968087055202849C91C49
:104750000968487005202649C91C0968887000202E
:104760002349C91C0968C8702148C01C006804712D
:1047700000201F49C91C0968487106201C49C91D31
:104780000880091F09681A4AD21D12888818324603
:104790002946FBF7DBFC1648C01D00888019144928
:1047A000C91D088008460188001F0068FEF75AFFEF
:1047B000074639120E4AD21D1088421C0C4BDB1DD5
:1047C0001A800C4A11541A461088421C1A80094A51
:1047D000175401201946083908700121002000F003
:1047E000FDF901E005200090FCF7D8FB0098A0E758
:1047F00035000020640400200146002904D001296E
:1048000004D0072906D103E0002005E0022003E0E0
:10481000062001E0042000BF00BF704710B5024829
:104820000068804710BD0000F000002010B502486D
:104830000068804710BD0000E800002010B5024865
:104840000068804710BD0000EC0000200000000060
:10485000F0B583B007460E46FCF730F804460D4627
:104860000B46024631463846FBF752FD0090019157
:104870001DA043680268009819A7002E0BDAFBF709
:10488000E7FE0BD91AA04368026801990098FCF76B
:1048900059F81CD213E0FBF7DBFE08D2294620466C
:1048A0007B683A68FBF734FD04460D460FE010A024
:1048B0004368026801990098FCF744F807D8294634
:1048C00020467B683A68FBF767FC04460D466900A2
:1048D0004908F20FD2072046114303B0F0BD000093
:1048E000000000000000F03F000000000000E0BFFA
:1048F000000000000000E03F10B500BF00210220D2
:1049000000F086F804460121872000F081F800219C
:10491000072000F07DF804460021022000F078F81E
:10492000044602218E2000F073F80321882000F055
:104930006FF80021882000F06BF80521872000F037
:1049400067F80021072000F063F804460221852063
:1049500000F05EF810BD000070B504461948C0684C
:1049600000282DD1FCF740FD0646FEF771FE002120
:104970004B2000F04DF8054600201249C86108613F
:104980007F2000F021F8002605E0002000F01CF850
:10499000A055701CC6B2AE42F7DB01200949086180
:1049A0000121872000F034F80021032000F030F8C6
:1049B0000021042000F02CF8FFF79EFF68B270BDC4
:1049C0000020FCE70042005000211CE08022104241
:1049D00003D001220D4B5A6102E000220B4B5A61B9
:1049E0004206100E0122094BDA611A469269002A2A
:1049F00002D00122104301E0FE2210400022034BAE
:104A0000DA614A1CD1B20829E0DB7047004200504D
:104A100010B502460020204CE0612061002312E026
:104A20008020024203D001201B4C606102E0002084
:104A3000194C60615006020E0120174CE061002005
:104A4000E061581CC3B2082BEADB00231CE0802085
:104A5000014203D00120104C606102E000200E4CA6
:104A600060614806010E01200B4CE0612046806920
:104A7000002802D00120014301E0FE200140002077
:104A8000054CE061581CC3B2082BE0DB0120024C4E
:104A90002061E061084610BD00420050F0B585B0CD
:104AA00004460D4600200290012001900020009055
:104AB00000BF04218520FFF7ABFF01218720FFF70E
:104AC000A7FF00210720FFF7A3FF074600210220D0
:104AD000FFF79EFF074601218E20FFF799FF032174
:104AE0008820FFF795FF00218820FFF791FF4021E4
:104AF000B420FFF78DFF2946BE20FFF789FF00266F
:104B000005E0A15DFF20FFF783FF701CC6B2AE4237
:104B1000F7DB09218720FFF77BFF1CE00021032042
:104B2000FFF776FF02900421029808400290029855
:104B3000002801D000200190FF205F30FCF716FA1A
:104B40000098401C80B20090FF215F31009888429D
:104B500001DB0020019001980128DFD0FF215F31A7
:104B6000009888420ADB01218720FFF751FFFCF7FC
:104B700065FCFFF7C1FE002005B0F0BD0021032059
:104B8000FFF746FF039000210420FFF741FF039049
:104B900001218720FFF73CFFFCF750FCFFF7ACFE3C
:104BA0000120E9E70020704770B50246FF23FF248B
:104BB00008E01578521C65400648405D58400446A0
:104BC0000548435D08464E1EB1B20028F1D11802D7
:104BD000204370BD4250000042510000002806D022
:104BE0000E4A526801231A430C4B5A6005E00B4AE7
:104BF000526852085200094B5A60002906D0074AF1
:104C0000526802231A43054B5A6005E0034A526872
:104C100002239A43014B5A60704700000000054090
:104C200000BF0748006801218907884304490860DC
:104C300000BF002003490870034908607047000066
:104C400020000140040000200800002010B50120D1
:104C5000074908700020074908600748FEF735FB40
:104C60000920FCF78BFA0448FEF7B2FB10BD0000E8
:104C700004000020080000202000014001460248F6
:104C8000006808700120704700001540F8B505461F
:104C90000C4616461F461148FDF7F8FF0022032177
:104CA00009060F48FCF780F80D48FBF7F1FF214695
:104CB0000C48FEF737FCFCF76FF90A484068012101
:104CC00008430849486002210D20FCF7E3FA0D2053
:104CD000FCF75EFAFCF762F90120F8BD1100000450
:104CE000113D80270000154000200249087002494C
:104CF000086070470D0100201001002001200349C9
:104D00000870002002490860704700000D01002073
:104D10001001002010B5044611480480114A0121F9
:104D2000C9061148FEF71AFB00BF0F4800680121B1
:104D3000490708430C49086000BF04210A20FCF71A
:104D4000A9FA0A20FCF724FA00BF074800680121ED
:104D5000890708430449086000BF012010BD000016
:104D600020010020204E000000001140002070476C
:104D700001460020064A1278002A07D0044A521E33
:104D800012780A700022024B1A700120704700004E
:104D90000200002000200249087001207047000036
:104DA0000200002001460120024A1070501E0170CE
:104DB0000120704702000020014602480068087088
:104DC0000120704700000540F8B505460C46164620
:104DD0001F461348FDF75AFF002203210906114818
:104DE000FBF7E2FF0F48FBF753FF21460E48FEF7A3
:104DF00099FBFCF7D1F80C484068012108430A49A7
:104E0000486003210C20FCF7CDF900BF0C210120E4
:104E100088400649086000BFFCF7C0F80120F8BDD3
:104E200010000004103D80270000054000E100E074
:104E30000146024801600120704700000000054063
:104E400010B504460B4804800B4A0121C9060B48E3
:104E5000FEF784FA0948FEF738FA03210920FCF727
:104E6000DDF90920FCF78AF90448FEF7B1FA0120C0
:104E700010BD00000C000020204E0000200001406A
:104E800038B500246846FFF797FF1F4800780028D0
:104E900006D001280AD002281BD0032830D102E016
:104EA000FFF7D4FE2CE0FFF7D1FE29E000201649E1
:104EB000093108806B461A780888411C124B093367
:104EC000198012490A5402200F490870FFF7BEFEEC
:104ED00016E00D4809300088FF280BDC6B461A7875
:104EE000094909310888411C074B093319800749D2
:104EF0000A5402E0032004490870FFF7A7FE00BF30
:104F000000BF204638BD00003500002064040020AA
:104F100010B500240E480078002804D0022807D0DD
:104F200003280BD109E00020FFF73CFF044606E010
:104F30000120FFF737FF044601E000E000BF00BF9B
:104F4000FFF76EFE012002490870204610BD0000E8
:104F50003500002010B5002419480078002802D040
:104F6000012829D104E000210120FFF737FE23E0CA
:104F7000134808300088002812D01149091D09681B
:104F80000878FFF755FF0E48001D0068401C0C49CB
:104F9000091D0860081D0088401E091D08800AE0E0
:104FA0000320FFF7FFFE044600210120FFF716FE55
:104FB00000200349087000BF00BF204610BD00005C
:104FC00034000020F0B50346CE08F000081A87B27E
:104FD00001209040401E85B29C5D701C185C000250
:104FE00004432046384184B2204628400446E0B2BB
:104FF000F0BDFFB582B00093CD08EE008E1BB6B2B7
:105000000196009B1F46019EB740BEB20096012745
:10501000049EB7407E1EB4B2EE008E1B2746B740FA
:10502000BCB2425D6E1C865D360232431646A64314
:10503000009F3E433246425516126F1CC65506B0BD
:10504000F0BD00C1814001C0804101C0804100C16C
:10505000814001C0804100C1814000C1814001C048
:10506000804101C0804100C1814000C1814001C038
:10507000804100C1814001C0804101C0804100C128
:10508000814001C0804100C1814000C1814001C018
:10509000804100C1814001C0804101C0804100C108
:1050A000814000C1814001C0804101C0804100C1F8
:1050B000814001C0804100C1814000C1814001C0E8
:1050C000804101C0804100C1814000C1814001C0D8
:1050D000804100C1814001C0804101C0804100C1C8
:1050E000814000C1814001C0804101C0804100C1B8
:1050F000814001C0804100C1814000C1814001C0A8
:10510000804100C1814001C0804101C0804100C197
:10511000814001C0804100C1814000C1814001C087
:10512000804101C0804100C1814000C1814001C077
:10513000804100C1814001C0804101C0804100C167
:10514000814000C0C101C30302C2C60607C705C52E
:10515000C404CC0C0DCD0FCFCE0E0ACACB0BC9099F
:1051600008C8D81819D91BDBDA1A1EDEDF1FDD1DAF
:105170001CDC14D4D515D71716D6D21213D311D1DF
:10518000D010F03031F133F3F23236F6F737F5352F
:1051900034F43CFCFD3DFF3F3EFEFA3A3BFB39F95F
:1051A000F83828E8E929EB2B2AEAEE2E2FEF2DED2F
:1051B000EC2CE42425E527E7E62622E2E323E1219F
:1051C00020E0A06061A163A3A26266A6A767A565AF
:1051D00064A46CACAD6DAF6F6EAEAA6A6BAB69A91F
:1051E000A86878B8B979BB7B7ABABE7E7FBF7DBD2F
:1051F000BC7CB47475B577B7B67672B2B373B1715F
:1052000070B050909151935352929656579755952E
:1052100094549C5C5D9D5F9F9E5E5A9A9B5B9959DE
:105220005898884849894B8B8A4A4E8E8F4F8D4DAE
:105230004C8C44848545874746868242438341811E
:10524000804000002110422063308440A550C66099
:10525000E770088129914AA16BB18CC1ADD1CEE133
:10526000EFF13112100273325222B5529442F772AA
:10527000D662399318837BB35AA3BDD39CC3FFF383
:10528000DEE36224433420040114E664C774A444BA
:1052900085546AA54BB528850995EEE5CFF5ACC5D3
:1052A0008DD55336722611163006D776F66695568A
:1052B000B4465BB77AA719973887DFF7FEE79DD723
:1052C000BCC7C448E5588668A7784008611802281A
:1052D0002338CCC9EDD98EE9AFF9488969990AA973
:1052E0002BB9F55AD44AB77A966A711A500A333AEA
:1052F000122AFDDBDCCBBFFB9EEB799B588B3BBBC3
:105300001AABA66C877CE44CC55C222C033C600C79
:10531000411CAEED8FFDECCDCDDD2AAD0BBD688D12
:10532000499D977EB66ED55EF44E133E322E511EC9
:10533000700E9FFFBEEFDDDFFCCF1BBF3AAF599F62
:10534000788F8891A981CAB1EBA10CD12DC14EF102
:105350006FE18010A100C230E32004502540467068
:105360006760B9839893FBA3DAB33DC31CD37FE393
:105370005EF3B1029012F322D232354214527762B8
:105380005672EAB5CBA5A89589856EF54FE52CD563
:105390000DC5E234C324A014810466744764245408
:1053A0000544DBA7FAB79987B8975FE77EF71DC773
:1053B0003CD7D326F2369106B01657667676154658
:1053C00034564CD96DC90EF92FE9C899E9898AB9C3
:1053D000ABA94458654806782768C018E1088238A8
:1053E000A3287DCB5CDB3FEB1EFBF98BD89BBBABD3
:1053F0009ABB754A545A376A167AF10AD01AB32AF8
:10540000923A2EFD0FED6CDD4DCDAABD8BADE89D22
:10541000C98D267C076C645C454CA23C832CE01C47
:10542000C10C1FEF3EFF5DCF7CDF9BAFBABFD98FB2
:10543000F89F176E367E554E745E932EB23ED10E97
:10544000F01E0000001BB70000000000000000007C
:105450000000000000000000102700000000000015
:1054600000805101001BB700000000000000000098
:1054700000805101001BB700000000000000000088
:1054800000805101001BB700000000000000000078
:1054900000805101001BB7000000000080F0FA02FC
:1054A00010270000000000000000000000000000C5
:1054B0000080510120AEA036E07D0B37A0170836E2
:1054C00060F0AF3660F0AF36403D2E36C0AFD2351B
:1054D000000D993620A5633680A33137406122370D
:1054E00060DE353640466B36A032BF36A032BF365E
:1054F000A00ECB35E0625436A0443937A00ECB3530
:10550000809AF436001F1337E050DA3540466B3688
:10551000809AF43680A33137807F3D360016D63628
:10552000A03BFC36C0C14C36809AF43660DE35367E
:1055300080A33137809AF4368091B73660022A37DB
:1055400000FB1E3660F0AF36A0443937209C26366B
:10555000000D993660D5F835000D9936C0AFD235BB
:105560004034F135C0CA893640466B36C0B80F3674
:10557000807F3D36A044393760022A37C0C14C369F
:10558000A05500000000002004020000B409000043
:1055900034560000040200209C090000423600003E
:1055A0000110DA010222301B2031041304021B20F7
:1055B000140401143202320423913632114BC93AD9
:1055C00010235339320323C738321023393C3206B3
:1055D00023613B32171ADF203201234D3732051A7F
:1055E000F138320F1AA12029541A0B38015C5E8061
:1055F000F0FA0232080947542625DB338025235070
:10560000C3321414A0860114F04902140101FF9260
:105610002029F6E10A100113D12809400ECF1914F0
:105620000907022732044BE80304FA8052091C4A96
:045630000A11097CD6
:04000005000000D522
:00000001FF
